{
  "_format": "hh-sol-artifact-1",
  "contractName": "MinimalStaking",
  "sourceName": "contracts/MinimalStaking.sol",
  "abi": [
    {
      "inputs": [],
      "stateMutability": "nonpayable",
      "type": "constructor"
    },
    {
      "anonymous": false,
      "inputs": [
        {
          "indexed": false,
          "internalType": "string",
          "name": "requestId",
          "type": "string"
        }
      ],
      "name": "StakeCompleted",
      "type": "event"
    },
    {
      "anonymous": false,
      "inputs": [
        {
          "indexed": false,
          "internalType": "string",
          "name": "requestId",
          "type": "string"
        },
        {
          "indexed": false,
          "internalType": "address",
          "name": "user",
          "type": "address"
        },
        {
          "indexed": false,
          "internalType": "uint256",
          "name": "amount",
          "type": "uint256"
        }
      ],
      "name": "StakeCreated",
      "type": "event"
    },
    {
      "anonymous": false,
      "inputs": [
        {
          "indexed": false,
          "internalType": "string",
          "name": "requestId",
          "type": "string"
        }
      ],
      "name": "StakeRefunded",
      "type": "event"
    },
    {
      "inputs": [],
      "name": "admin",
      "outputs": [
        {
          "internalType": "address payable",
          "name": "",
          "type": "address"
        }
      ],
      "stateMutability": "view",
      "type": "function"
    },
    {
      "inputs": [],
      "name": "appAccount",
      "outputs": [
        {
          "internalType": "address payable",
          "name": "",
          "type": "address"
        }
      ],
      "stateMutability": "view",
      "type": "function"
    },
    {
      "inputs": [
        {
          "internalType": "string",
          "name": "requestId",
          "type": "string"
        }
      ],
      "name": "completeStake",
      "outputs": [],
      "stateMutability": "nonpayable",
      "type": "function"
    },
    {
      "inputs": [
        {
          "internalType": "string",
          "name": "requestId",
          "type": "string"
        }
      ],
      "name": "createStake",
      "outputs": [],
      "stateMutability": "payable",
      "type": "function"
    },
    {
      "inputs": [],
      "name": "minimumStake",
      "outputs": [
        {
          "internalType": "uint256",
          "name": "",
          "type": "uint256"
        }
      ],
      "stateMutability": "view",
      "type": "function"
    },
    {
      "inputs": [
        {
          "internalType": "string",
          "name": "requestId",
          "type": "string"
        }
      ],
      "name": "refundStake",
      "outputs": [],
      "stateMutability": "nonpayable",
      "type": "function"
    },
    {
      "inputs": [
        {
          "internalType": "address",
          "name": "_appAccount",
          "type": "address"
        }
      ],
      "name": "setAppAccount",
      "outputs": [],
      "stateMutability": "nonpayable",
      "type": "function"
    },
    {
      "inputs": [
        {
          "internalType": "string",
          "name": "",
          "type": "string"
        }
      ],
      "name": "stakeUsers",
      "outputs": [
        {
          "internalType": "address payable",
          "name": "",
          "type": "address"
        }
      ],
      "stateMutability": "view",
      "type": "function"
    },
    {
      "inputs": [
        {
          "internalType": "string",
          "name": "",
          "type": "string"
        }
      ],
      "name": "stakes",
      "outputs": [
        {
          "internalType": "uint256",
          "name": "",
          "type": "uint256"
        }
      ],
      "stateMutability": "view",
      "type": "function"
    }
  ],
  "bytecode": "0x60806040526302faf08060025534801561001857600080fd5b50336000806101000a81548173ffffffffffffffffffffffffffffffffffffffff021916908373ffffffffffffffffffffffffffffffffffffffff160217905550610fbc806100686000396000f3fe6080604052600436106100865760003560e01c8063c617d13c11610059578063c617d13c14610122578063dc43953d1461014d578063ec5ffac21461018a578063f851a440146101b5578063fdf59cdf146101e057610086565b806342335d0b1461008b5780635822ef43146100b4578063902ff609146100dd578063bfeddfd1146100f9575b600080fd5b34801561009757600080fd5b506100b260048036038101906100ad9190610adc565b61021d565b005b3480156100c057600080fd5b506100db60048036038101906100d69190610b83565b610489565b005b6100f760048036038101906100f29190610adc565b61055b565b005b34801561010557600080fd5b50610120600480360381019061011b9190610adc565b6106bf565b005b34801561012e57600080fd5b506101376108bb565b6040516101449190610bd1565b60405180910390f35b34801561015957600080fd5b50610174600480360381019061016f9190610adc565b6108e1565b6040516101819190610bd1565b60405180910390f35b34801561019657600080fd5b5061019f61092a565b6040516101ac9190610c05565b60405180910390f35b3480156101c157600080fd5b506101ca610930565b6040516101d79190610bd1565b60405180910390f35b3480156101ec57600080fd5b5061020760048036038101906102029190610adc565b610954565b6040516102149190610c05565b60405180910390f35b60008054906101000a900473ffffffffffffffffffffffffffffffffffffffff1673ffffffffffffffffffffffffffffffffffffffff163373ffffffffffffffffffffffffffffffffffffffff16146102ab576040517f08c379a00000000000000000000000000000000000000000000000000000000081526004016102a290610c7d565b60405180910390fd5b60006003826040516102bd9190610d17565b9081526020016040518091039020541161030c576040517f08c379a000000000000000000000000000000000000000000000000000000000815260040161030390610d7a565b60405180910390fd5b600073ffffffffffffffffffffffffffffffffffffffff16600160009054906101000a900473ffffffffffffffffffffffffffffffffffffffff1673ffffffffffffffffffffffffffffffffffffffff16141561039e576040517f08c379a000000000000000000000000000000000000000000000000000000000815260040161039590610de6565b60405180910390fd5b60006003826040516103b09190610d17565b908152602001604051809103902054905060006003836040516103d39190610d17565b908152602001604051809103902081905550600160009054906101000a900473ffffffffffffffffffffffffffffffffffffffff1673ffffffffffffffffffffffffffffffffffffffff166108fc829081150290604051600060405180830381858888f1935050505015801561044d573d6000803e3d6000fd5b507f0df96fbb075b32f33acfb635ec5f1f575745b2e0d8269c0e01f46238dbf80a388260405161047d9190610e3f565b60405180910390a15050565b60008054906101000a900473ffffffffffffffffffffffffffffffffffffffff1673ffffffffffffffffffffffffffffffffffffffff163373ffffffffffffffffffffffffffffffffffffffff1614610517576040517f08c379a000000000000000000000000000000000000000000000000000000000815260040161050e90610c7d565b60405180910390fd5b80600160006101000a81548173ffffffffffffffffffffffffffffffffffffffff021916908373ffffffffffffffffffffffffffffffffffffffff16021790555050565b6002543410156105a0576040517f08c379a000000000000000000000000000000000000000000000000000000000815260040161059790610ead565b60405180910390fd5b60006003826040516105b29190610d17565b90815260200160405180910390205414610601576040517f08c379a00000000000000000000000000000000000000000000000000000000081526004016105f890610f19565b60405180910390fd5b346003826040516106129190610d17565b908152602001604051809103902081905550336004826040516106359190610d17565b908152602001604051809103902060006101000a81548173ffffffffffffffffffffffffffffffffffffffff021916908373ffffffffffffffffffffffffffffffffffffffff1602179055507f1cf7fb4567b79382ed14087dc9740331a3a6655b57e81947aa8765109c5e067d8133346040516106b493929190610f48565b60405180910390a150565b60008054906101000a900473ffffffffffffffffffffffffffffffffffffffff1673ffffffffffffffffffffffffffffffffffffffff163373ffffffffffffffffffffffffffffffffffffffff161461074d576040517f08c379a000000000000000000000000000000000000000000000000000000000815260040161074490610c7d565b60405180910390fd5b600060038260405161075f9190610d17565b908152602001604051809103902054116107ae576040517f08c379a00000000000000000000000000000000000000000000000000000000081526004016107a590610d7a565b60405180910390fd5b60006003826040516107c09190610d17565b908152602001604051809103902054905060006004836040516107e39190610d17565b908152602001604051809103902060009054906101000a900473ffffffffffffffffffffffffffffffffffffffff16905060006003846040516108269190610d17565b9081526020016040518091039020819055508073ffffffffffffffffffffffffffffffffffffffff166108fc839081150290604051600060405180830381858888f1935050505015801561087e573d6000803e3d6000fd5b507f6b753adce2b63428a3fc7bf4189ed0c967b59c6f34a2ee89c6e3dc21cad1ffd3836040516108ae9190610e3f565b60405180910390a1505050565b600160009054906101000a900473ffffffffffffffffffffffffffffffffffffffff1681565b6004818051602081018201805184825260208301602085012081835280955050505050506000915054906101000a900473ffffffffffffffffffffffffffffffffffffffff1681565b60025481565b60008054906101000a900473ffffffffffffffffffffffffffffffffffffffff1681565b6003818051602081018201805184825260208301602085012081835280955050505050506000915090505481565b6000604051905090565b600080fd5b600080fd5b600080fd5b600080fd5b6000601f19601f8301169050919050565b7f4e487b7100000000000000000000000000000000000000000000000000000000600052604160045260246000fd5b6109e9826109a0565b810181811067ffffffffffffffff82111715610a0857610a076109b1565b5b80604052505050565b6000610a1b610982565b9050610a2782826109e0565b919050565b600067ffffffffffffffff821115610a4757610a466109b1565b5b610a50826109a0565b9050602081019050919050565b82818337600083830152505050565b6000610a7f610a7a84610a2c565b610a11565b905082815260208101848484011115610a9b57610a9a61099b565b5b610aa6848285610a5d565b509392505050565b600082601f830112610ac357610ac2610996565b5b8135610ad3848260208601610a6c565b91505092915050565b600060208284031215610af257610af161098c565b5b600082013567ffffffffffffffff811115610b1057610b0f610991565b5b610b1c84828501610aae565b91505092915050565b600073ffffffffffffffffffffffffffffffffffffffff82169050919050565b6000610b5082610b25565b9050919050565b610b6081610b45565b8114610b6b57600080fd5b50565b600081359050610b7d81610b57565b92915050565b600060208284031215610b9957610b9861098c565b5b6000610ba784828501610b6e565b91505092915050565b6000610bbb82610b25565b9050919050565b610bcb81610bb0565b82525050565b6000602082019050610be66000830184610bc2565b92915050565b6000819050919050565b610bff81610bec565b82525050565b6000602082019050610c1a6000830184610bf6565b92915050565b600082825260208201905092915050565b7f4f6e6c792061646d696e00000000000000000000000000000000000000000000600082015250565b6000610c67600a83610c20565b9150610c7282610c31565b602082019050919050565b60006020820190508181036000830152610c9681610c5a565b9050919050565b600081519050919050565b600081905092915050565b60005b83811015610cd1578082015181840152602081019050610cb6565b83811115610ce0576000848401525b50505050565b6000610cf182610c9d565b610cfb8185610ca8565b9350610d0b818560208601610cb3565b80840191505092915050565b6000610d238284610ce6565b915081905092915050565b7f4e6f207374616b65000000000000000000000000000000000000000000000000600082015250565b6000610d64600883610c20565b9150610d6f82610d2e565b602082019050919050565b60006020820190508181036000830152610d9381610d57565b9050919050565b7f4e6f20617070206163636f756e74000000000000000000000000000000000000600082015250565b6000610dd0600e83610c20565b9150610ddb82610d9a565b602082019050919050565b60006020820190508181036000830152610dff81610dc3565b9050919050565b6000610e1182610c9d565b610e1b8185610c20565b9350610e2b818560208601610cb3565b610e34816109a0565b840191505092915050565b60006020820190508181036000830152610e598184610e06565b905092915050565b7f496e73756666696369656e74207374616b650000000000000000000000000000600082015250565b6000610e97601283610c20565b9150610ea282610e61565b602082019050919050565b60006020820190508181036000830152610ec681610e8a565b9050919050565b7f5374616b65206578697374730000000000000000000000000000000000000000600082015250565b6000610f03600c83610c20565b9150610f0e82610ecd565b602082019050919050565b60006020820190508181036000830152610f3281610ef6565b9050919050565b610f4281610b45565b82525050565b60006060820190508181036000830152610f628186610e06565b9050610f716020830185610f39565b610f7e6040830184610bf6565b94935050505056fea2646970667358221220ec3863c1152c851f49ee94d6651f96bb56610785ef96373935cec202ff71e63a64736f6c63430008090033",
  "linkReferences": {},
  "deployedLinkReferences": {}
}